:100000000C9434000C9451000C9451000C94510049
:100010000C94B0000C9451000C9451000C945100BD
:100020000C9451000C9451000C9451000C9451000C
:100030000C9451000C9451000C9451000C945100FC
:100040000C94CA000C9451000C9451000C94510073
:100050000C9451000C94E0000C9451000C9451004D
:100060000C9451000C94510011241FBECFEFD8E026
:10007000DEBFCDBF11E0A0E0B1E0EAE3F2E002C0F4
:1000800005900D92A032B107D9F721E0A0E2B1E0CE
:1000900001C01D92A432B207E1F70E949B000C94AC
:1000A0001B010C940000ECE7F0E01082808180647A
:1000B0008083808180628083808183608083EAE79F
:1000C000F0E01082808180688083808188608083F6
:1000D0008081836080838081806480830895CF9352
:1000E000F8948FEF8AB984B91BB8C1E0C5B90E94F2
:1000F000530017B888B1876088B982E080936800A0
:1001000083E080936C0010922001E1E6F0E090E83B
:10011000908394E0908314BC85BD82EB86BDC09330
:100120006E008FE38093210110922301109222012F
:100130007894CF9108950E946F0085B1843019F4AE
:10014000809120018BB985B1813019F48091230110
:100150008BB985B1823089F7809122018BB9EDCFBF
:100160001F920F920FB60F9211248F93309B05C0F0
:10017000809120018F5F80932001319B05C0809189
:1001800020018150809320018F910F900FBE0F901E
:100190001F9018951F920F920FB60F9211248F93F4
:1001A00082EB86BD85B1880F85B985B1883011F4A1
:1001B00081E085B98F910F900FBE0F901F90189519
:1001C0001F920F920FB60F9211248F939F93EF936C
:1001D000FF938091790080932101E82FEF70F0E088
:1001E000EE0FFF1FE050FF4F908190932201E82F08
:1001F000E295EF70F0E0EE0FFF1FE050FF4F9081AF
:100200009093230190912001981720F488B1846085
:1002100088B903C088B18B7F88B9EAE7F0E08081B4
:1002200080648083FF91EF919F918F910F900FBE1B
:0A0230000F901F901895F894FFCF6F
:10023A003F0006005B004F0066006D007D0007006E
:10024A007F00670077007C0039005E00790071004A
:00000001FF
